:020000040800F2
:104000001062002045410008D1250108BD0E0108BD
:1040100015250108835E00082D53010800000000EB
:104020000000000000000000000000001F37010831
:1040300039BA0008000000005D2B0108513D01085D
:104040005F4100085F4100085F4100085F410008D0
:104050005F4100085F410008A1BE00085F41000801
:104060005F4100085F4100087DBF00085F41000814
:104070005F41000821B600085F4100085F41000869
:104080005F4100085F4100085F4100085F41000890
:104090005F4100085F4100085F410008C1BF0008A0
:1040A0005F4100085F4100085F4100085F41000870
:1040B000414001085F410008CD4001085F41000810
:1040C0005F4100085F4100085F4100085F41000850
:1040D0005F4100085F4100085F4100085F41000840
:1040E00041BF0008252E01085F4100085F4100081C
:1040F0005F4100085F4100085F4100085F41000820
:104100005F4100085F4100089D4201085F410008CF
:104110005F410008214801085F4100085F41000835
:104120005F4100085F4100085F4100085F410008EF
:10413000DFF80CD000F0D2FD004800470D830108E5
:10414000106200200648804706480047FEE7FEE769
:10415000FEE7FEE7FEE7FEE7FEE7FEE7FEE7FEE737
:10416000693D010831410008D2B201E000F8012B9D
:10417000491EFBD270470022F6E710B513460A46E7
:1041800004461946FFF7F0FF204610BD421E12F804
:10419000013F002BFBD111F8013B02F8013B002B42
:1041A000F9D1704730B505462A460B4612F8010B87
:1041B00013F8014B08B1A042F8D01CB1002802D07E
:1041C0006D1CF1E7284630BD421C10F8011B002988
:1041D000FBD1801A704710B5002200E0521C835CAE
:1041E0008C5CA34201D1002BF8D1D8B2E1B2401AC5
:1041F00010BD034611F8012B00F8012B002AF9D15C
:104200001846704730B505460020034600E05B1CA9
:10421000934205D2EC5CC85C201A01D1002CF6D187
:1042200030BD70B5064611F005F9046805460A224E
:104230000021304600F008FC2C6070BD70B50646C9
:1042400011F0F8F8046805460A220021304600F013
:10425000FBFB2C6070BDF0B480EA0102D40F420079
:10426000B2EB410F02D20246084611464A0042D044
:10427000C30DDDB2C1F3C752AD1A202D35DAC1F33B
:10428000160141F4000204B15242C5F1200602FABF
:1042900006F12A411044B3EBD05F23D0C4B1012D05
:1042A000A0EBC35009DCF0BC4FF0004202EAC3525D
:1042B000DBB200F5000000F008BC400000F18070A7
:1042C00000EBC350A0F1807040EAD170490009E0D2
:1042D000490841EAC071A0EBC35000F50000400856
:1042E00000EBC350F0BC00F0E7BB6142012202EBDF
:1042F0004101001BF6E7F0BC704781F00041AAE7DE
:1043000080F00040A7E780EA010210B502F0004308
:10431000400022D04A001FD0010E01EB1261C0F311
:104320005600C2F3560240F4000042F40002A0FB23
:10433000022000047F39140400D0401C50EA1240CF
:1043400001D44000491EC2B20C0604EBD010401C40
:104350004008802A02D003E0002010BD20F00100B8
:10436000002900DA0020184310BD30B480EA0102B1
:1043700002F0004530F0004221F0004013D090B12F
:10438000C30DD40DC2F31601C0F31600E41A41F4B4
:10439000000140F400027D34914201D3641C00E02E
:1043A0004900002C02DA30BC002070474FF40000B6
:1043B0000023914201D3891A034340084FEA410187
:1043C000F7D151B1914202D14FF0004105E002D244
:1043D0004FF0010101E06FF0010103EBC4502844EC
:1043E00030BC00F069BB2DE9FE4F804681EA030036
:1043F000C00F0C46009021F0004123F00045B8EBBF
:104400000200A94105D24046214690461C460B4673
:10441000024623F00040104347D0270DC7F30A009F
:10442000C3F30A510290401A019040286BDAC3F39B
:10443000130040F4801B0098924620B10023D2EB79
:10444000030A63EB0B0B01985946C0F1400250463A
:1044500000F07BFA06460D4650465946019A00F098
:1044600093FA10EB08006141002487EA115284EAB4
:10447000E7731A4340D0009A62B3019A012A4FEAC7
:10448000075215DC001B61EB02014FF0004202EA0B
:104490000752CDE90042001C41F5801132462B46FF
:1044A00000F04EFB03B0BDE8F08F40462146F9E72F
:1044B000001B61EB0201001C41F5801300185B41F9
:1044C0002018A2F5001747EB030140EAD570B61992
:1044D0006D4111E06D084FEA360645EAC0754FEAB6
:1044E0000752001B61EB0201001C41F580114908D5
:1044F0004FEA30000019514132462B4603B0BDE867
:10450000F04F00F010BB0098012240000023D0EBD8
:10451000020263EBE073009821464FEAE074B8EBC7
:10452000000061EB0401E9E783F000435BE781F001
:10453000004158E72DE9FE4F81EA030404F00044EE
:1045400021F0004100944FF0000B23F0004350EAAB
:1045500001045ED052EA03045BD0C3F30A54C1F3F2
:104560000A552C44A4F2F3340194A0FB0254C1F385
:10457000130141F48011C3F3130343F4801301FBCF
:10458000024400FB034E840A970A44EA815447EA36
:104590008357A4FB076802958D0A05FB07854FEA40
:1045A000932C04FB0C542705029D4FEA065847EA5A
:1045B0001637B5EB08056EEB070C870E920E47EA2F
:1045C000811742EA8312A7FB0201B6EB0B0164EBF1
:1045D00000042B0D43EA0C335E1844EB1C50DA4602
:1045E0005146E7FB0201C5F313044FEA0B3343EADC
:1045F00014534FEA0432019C43EA0603A4F10C046D
:104600000294009CCDE900B400F09AFA03B0BDE832
:10461000F08F00200146F9E72DE9F04D81EA03040F
:1046200004F0004B21F0004514464FF0000A23F03F
:10463000004150EA050220D054EA01021DD0C5F322
:104640000A570246C5F31303C1F31300C1F30A5618
:1046500040F4801543F48013A7EB0608101BD646E0
:1046600008F2FD3873EB050002D308F1010801E000
:1046700092185B41B8F1000F03DA00200146BDE853
:10468000F08D00204FF48011064684460EE0171B83
:1046900073EB050705D3121B63EB050306434CEAD6
:1046A000010C49084FEA300092185B4150EA0107BB
:1046B000EDD152EA030012D082EA040083EA050138
:1046C000084305D0101BAB4106D20122002306E0AF
:1046D00000224FF0004302E06FF0010253101AEB8A
:1046E00006004CEB085110EB0A0041EB0B01BDE852
:1046F000F04D00F018BAC10F80EAE0700844CA0714
:104700009623002100F0E1B996230022114600F023
:10471000DCB90EB5C10F80EAE0700844CA07002179
:1047200040F233438DE80E000A460B4600F008FACB
:1047300003B000BD0EB540F2334102910021CDE936
:1047400000110A460B4600F0FBF903B000BD00F073
:10475000004220F00040C10DC0F3160040F40000FC
:104760007F2901DA00207047962903DCC1F1960108
:10477000C84001E096398840002AF4D04042704792
:1047800020F00040C10DC0F3160040F400007F2966
:1047900001DA00207047962903DCC1F19601C84078
:1047A000704796398840704770B5C1F30A5201F0DE
:1047B00000450024C1F3130140F2FF3341F480119E
:1047C0009A4201DA002070BD40F233439A42A2F2CD
:1047D000334203DC524200F0C7F800E090402C4323
:1047E000F1D0404270BD00F0004230F000400AD0ED
:1047F000C10D01F56071C0F3160042EA0151C20813
:1048000040071143704700200146704730B500292A
:1048100004DB4FF00044404264EB0101002B04DB59
:104820004FF00044524264EB03038B4208BF8242C4
:1048300030BD000030B5002904DB4FF00044404299
:1048400064EB0101002B04DB4FF00044524264EBA7
:104850000303994208BF904230BD000001F00043BD
:1048600030B421F0004150EA010206D00A0DA2F551
:104870006072C1F31301002A02DC30BC00207047D3
:10488000440F44EAC104C100E01830BC00EBC25040
:1048900000F012B9002801DBC0F10040002901DB63
:1048A000C1F1004181427047002801DBC0F10040A6
:1048B000002901DBC1F100418842704730B50B4649
:1048C000014600202022012409E021FA02F59D4240
:1048D00005D303FA02F5491B04FA02F52844151E14
:1048E000A2F10102F1DC30BD2DE9F05F05460020A8
:1048F00092469B4688460646814640241BE0284651
:1049000041464746224600F02FF853465A46C01A01
:10491000914110D311461846224600F016F82D1A80
:1049200067EB01084F4622460120002100F00DF8F8
:1049300017EB00094E41201EA4F10104DFDC4846BC
:1049400031462A464346BDE8F09F202A04DB203A40
:1049500000FA02F1002070479140C2F1200320FAD2
:1049600003F3194390407047202A04DB203A21FAD0
:1049700002F00021704721FA02F3D040C2F1200278
:104980009140084319467047202A06DBCB17203A8E
:1049900041FA02F043EAE07306E041FA02F3D04044
:1049A000C2F1200291400843194670470FB400231A
:1049B00000B589B00CA900910B996FF00042CB6053
:1049C0001E4B06931E4B07930423CDE901321D4A6B
:1049D000089202466B46002000F020FA09B05DF80C
:1049E00014FB70B586B006464FF0FF300091CDE95C
:1049F0000101002015460C4604903246694604A881
:104A0000FFF7D4FF03460498211825B108B10A46E0
:104A100000E022462A6000280DD0002B02DD00981D
:104A2000884208D0081B0094CDE90104324669464B
:104A300004A8FFF7BBFF06B070BD0000555000088A
:104A400073500008094D00082DE9F04791460F46C4
:104A500080460446002614F8015B2DB100F050F9A1
:104A60000068405DC007F6D12B2D02D02D2D18D047
:104A7000641E4A463946204600F00CFB27B13968CF
:104A8000A14201D1C7F8008071054FF002040BD597
:104A90004042002803DD10F0CDFC0460A007BDE813
:104AA000F08746F48066E4E70028F8DA10F0C2FCEC
:104AB00004606FF00040F2E70029A8BF7047401C77
:104AC000490008BF20F00100704710B4B0FA80FC24
:104AD00000FA0CF050EA010404BF10BC704749B161
:104AE000CCF1200421FA04F411FA0CF118BF0121D1
:104AF00021430843A3EB0C01CB1D4FEA00614FEAB1
:104B0000102042BF002010BC704700EBC35010447F
:104B10000029A4BF10BC7047401C490008BF20F00A
:104B2000010010BC704710B5002B08DA401C41F1A1
:104B3000000192185B411A4301D120F0010010BD21
:104B40002DE9F04D92469B4611B1B1FA81F202E097
:104B5000B0FA80F220329046FFF7F7FE04460F4687
:104B600040EA0A0041EA0B0153465A46084313D073
:104B7000114653EA010019D0C8F140025046FFF730
:104B8000F3FE05460E46504659464246FFF7DDFE07
:104B9000084305D0012004E020463946BDE8F08DE9
:104BA0000020054346EAE0762C4337430A98630524
:104BB000E40AA0EB08000022FD0A44EA47540A3048
:104BC00002D500200146E9E7010510196941DDE938
:104BD000084500196941BDE8F04DA4E770B521F022
:104BE000004303430CD0C1F30A550024D5EB040560
:104BF00064EB0403D617AD1AB34102DB0020014673
:104C000070BD201841EB025170BD2DE9F04D00231D
:104C10001A461B1A8A4103DB00200146BDE8F08DCD
:104C2000C1F30A52C1F3130141F480154FF0000B98
:104C3000D10702D100186D41521E0027044640F2F0
:104C4000FF11384601EB620A3E46804602460020CC
:104C50004FF48011FFF788FEC2197141BB1846EB73
:104C60000100B4EB030C75EB000C04D3E41A65EB04
:104C7000000517460E46241908F101006D418046D3
:104C80003428E3DDF91946EB0600091BA84103D2DD
:104C90004FF0FF32134601E0002213461BEB0700E2
:104CA00046EB0A51BDE8F04DFFF73DBFC1F30A5294
:104CB000C1F3130140F2FF3341F480119A4202DA4A
:104CC00000200146704740F233439A42A2F2334239
:104CD00002DC5242FFF748BEFFF737BE064C074DD5
:104CE00006E0E06840F0010394E8070098471034BC
:104CF000AC42F6D3FFF720FA389401085894010823
:104D0000004870473494010810B50446FFF7F8FFD7
:104D10000068005D00F0010010BD00002DE9FF4FAC
:104D2000087881B09946FF2805D0491C2D2804D069
:104D30000024002308E000230BE00124F9E703EB43
:104D4000830300EB4303491C0878FF28F7D104B123
:104D50005B4200200090147801462D2C01D02B2CB2
:104D600004D1521C2D2C12D000240094002516785A
:104D7000FF2E0ED00A24A0FB04C801FB04810027EB
:104D800000FB0711521C16EB0C006941EFE70124F0
:104D9000EBE7994450EA01020ED00024AA4D2646C2
:104DA000DFF8A88200F0D3F982468B46B9F1000003
:104DB00009DAC9F100071BE001980021C0E90011E0
:104DC00005B0BDE8F08F074612E0F80707D022468D
:104DD0002B4630464146FFF7ADFB06468846224645
:104DE0002B4610461946FFF7A5FB04460D467F10DB
:104DF000002FEAD1B9F1000F3246434650465946DA
:104E000002DAFFF709FC01E0FFF794FB009A0AB110
:104E100081F00041019AC2E90001D1E72DE9FF4F7D
:104E20001F468DB0D7E901464FF0FF382E2045468A
:104E30004FF000090B90B9696D1C0E988847396ACC
:104E4000824688470028F6D1BAF1FF3F0AD024F401
:104E5000D064002E11DDBAF12B0F08D0BAF12D0F5E
:104E60000BD102E0404611B0ABE744F48064B9696D
:104E70006D1C0E9888478246761E6946600501D5EE
:104E80002D2000E02B208DF8000001F1010B0DF129
:104E9000200809E0B9696D1C0E98884782460F9872
:104EA00044F40074761E0560002E02DDBAF1300F66
:104EB000F0D00B998A453ED144F0800406E00F996A
:104EC000681CA9F1010944F400740860B9696D1CFB
:104ED000761E0E98884782463028F0D02BE00B993A
:104EE0008A4505D1200603D444F08004761E18E0DC
:104EF000504610F081FE08B30DF11301761E44F404
:104F000000748B4508D2AAF130000BF8010B200683
:104F100007D5A9F1010003E0200602D409F1010040
:104F20008146A00502D50F99681C0860B9696D1CFF
:104F30000E9888478246002ED1DC53E0002E51DDCA
:104F4000BAF1650F02D0BAF1450F4BD1A00549D592
:104F5000B9696D1C24F44074761E0E988847824609
:104F6000002E0CDD2B2804D0BAF12D0F07D144F40C
:104F70008074B9696D1C0E9888478246761EE005DC
:104F800001D52D2100E02B2108F8011BCDF82C8044
:104F900021E00DF12901761E44F4007488450CD2FD
:104FA000AAF1300010F0FF0088F8000002D10B9940
:104FB000884509D908F1010806E0E00501D5244833
:104FC00001E042F20F708146B9696D1C0E98884766
:104FD00082460F980560002E04DD504610F00CFE4E
:104FE0000028D6D1F9690E988847FF208BF8000079
:104FF00088F800000020069007904B466A4608A9F2
:1050000006A8FFF78BFEA00502D46FF001002AE787
:1050100014F0240F0AD0E00714D1DDE90612386835
:10502000031D3B600068C0E900120BE0DDE90601EA
:10503000FFF714FC0146E00704D13868021D3A600E
:105040000068016028460EE7000024400000F03FA1
:10505000F1D8FFFF426842B1016811F8013B23B16A
:10506000521EC0E90012184670470121C160881E17
:10507000704742685AB1C368016843B983688B427C
:1050800005D0491E521CC0E90012002070474FF0A5
:10509000FF3070472DE9F05F824600780027154603
:1050A0008B460AF10104B946302801D09DB113E0C6
:1050B00014F8010B0127782803D0582801D045B1F6
:1050C0000AE00DB1102D07D10027102514F8010BAF
:1050D00002E0082500E00A250026B0460EE005FBA8
:1050E000080005FB06F1012701EB10461FFA80F8C6
:1050F000B6F5803F00D3B94614F8010B294600F0FD
:1051000018F80028EBDABBF1000F05D00FB1641ED0
:1051100000E05446CBF80040B9F1000F06D010F083
:1051200089F902210160C81EBDE8F09F48EA0640E7
:10513000FAE73A2800D2303820F02002412A01D381
:10514000A2F13700884201D34FF0FF3070470EB50F
:1051500040F2334202920022CDE900221346FFF7CB
:10516000EFFC03B000BD70B58C1810F8015B15F0B2
:10517000070301D110F8013B2A1106D110F8012BC9
:1051800003E010F8016B01F8016B5B1EF9D12B07EE
:1051900005D40023521E0DD401F8013BFAE710F8A4
:1051A000013BCB1A921C03E013F8015B01F8015B91
:1051B000521EF9D5A142D8D3002070BD10B50446C7
:1051C000214601200DF0CCFC21464FF404700DF077
:1051D000E7FC284806F06CFA274828494860284828
:1051E0000860002088600420C860002008618020DA
:1051F0004861400088618000C8612020086200206A
:1052000088624FF4005048621A4806F016FB2146A7
:10521000184806F041FA00201A4908600120087178
:1052200048714FF4602088600020C8600420087432
:1052300013484C3800F03EF8002301220D2110489D
:105240004C3800F05FF8002302220C210C484C3847
:1052500000F058F8002303220A2109484C3800F0D6
:1052600051F8002304220B2105484C3800F04AF87D
:1052700010BD0000080002404E130020742C0020D6
:105280004C240140602C002021B1826842F00102D0
:10529000826003E0826822F001028260704721B1DF
:1052A000826842F48072826003E0826822F4807235
:1052B0008260704730B502460020002350680F4CD2
:1052C00020400D790C6844EA052420435060906822
:1052D0000B4C2040D1E902542C434D7944EA45045B
:1052E00020439060D06A20F470000C7C641EE4B20D
:1052F000234340EA0350D06230BD0000FFFEF0FFC0
:10530000FDF7F1FFF0B504460D4600200021092D00
:1053100011DDE068A5F10A0606EB4607072606FA46
:1053200007F18843A5F10A0606EB460603FA06F1E3
:105330000843E0600CE0206905EB4507072606FA04
:1053400007F1884305EB450603FA06F1084320619F
:10535000072A0FDA606B561E06EB86071F2606FA31
:1053600007F18843561E06EB860605FA06F1084348
:10537000606322E00D2A0FDA206BD61F06EB86074A
:105380001F2606FA07F18843D61F06EB860605FAA4
:1053900006F10843206310E0E06AA2F10D0606EB77
:1053A00086071F2606FA07F18843A2F10D0606EBD1
:1053B000860605FA06F10843E062F0BD21B1826875
:1053C00042F4A002826003E0826822F4A0028260BC
:1053D0007047000010B501210548FFF760FF01216B
:1053E0000348FFF751FF01210148FFF7E7FF10BD18
:1053F0000024014010B500210348FFF750FF0021B1
:105400000148FFF741FF10BD002401402DE9F041A4
:1054100000246649B1F83201FFF776F98046644806
:1054200001684046FEF76FFF07466249FEF76BFFD3
:105430000646614801683046FEF765FF05465F494C
:10544000FEF793FF5949C8640A46D16C106DFEF708
:1054500002FF56490865084690F85800401C81F83C
:105460005800084690F85800554991F8741788423A
:105470006FDB00204D4981F85800514991F87407BD
:10548000FFF742F905464949086D2946FEF76DFFC9
:10549000464908650A46116D506DFEF72EFF054618
:1054A000FFF755F90446201E01DB014600E04142AA
:1054B0000C463E48006D3D4948654149D1F87C079E
:1054C000FFF722F905463948016D2846FFF7E2F952
:1054D0000ED2364890F8DB0050B93948D0F87C0736
:1054E00030B10120314981F8DA0081F8DB0055E064
:1054F0003349D1F87807FFF707F905462B48016DC6
:105500002846FFF7D1F90FD2284890F8DB0058B9A8
:105510002B48D0F8780738B10220244981F8DA0006
:10552000012081F8DB0039E02548D0F88007A0424F
:1055300010D21E4890F8DB0060B92148D0F88007EF
:1055400040B10320194981F8DA00012081F8DB001D
:1055500024E028E01A49D1F87807FFF7D5F8054686
:105560001248016D2846FFF795F917D21449D1F872
:105570007C07FFF7C9F805460C48016D2846FFF780
:1055800093F90BD2094890F8DB00012806D10420DA
:10559000064981F8DA00002081F8DB000020034989
:1055A000086500F0EBF8BDE8F08100002012002053
:1055B000E801002000007A44F001002000F07F455F
:1055C000E82000202DE9F04100246649B1F83401BB
:1055D000FFF79AF88046644801684046FEF793FE5C
:1055E00007466249FEF78FFE06466148016830466D
:1055F000FEF789FE05465F49FEF7B7FE5949C865C3
:105600000A46D16D106EFEF726FE5649086608461A
:1056100090F86800401C81F86800084690F868001F
:10562000554991F8861788426FDB00204D4981F873
:105630006800514991F88607FFF766F80546494921
:10564000086E2946FEF791FE464908660A46116E25
:10565000506EFEF752FE0546FFF779F80446201E0D
:1056600001DB014600E041420C463E48006E3D49E8
:1056700048664149D1F88C07FFF746F80546394896
:10568000016E2846FFF706F90ED2364890F8DD0085
:1056900050B93948D0F88C0730B10120314981F830
:1056A000DC0081F8DD0055E03349D1F88807FFF7C9
:1056B0002BF805462B48016E2846FFF7F5F80FD268
:1056C000284890F8DD0058B92B48D0F8880738B141
:1056D0000220244981F8DC00012081F8DD0039E056
:1056E0002548D0F89007A04210D21E4890F8DD005F
:1056F00060B92148D0F8900740B10320194981F8DA
:10570000DC00012081F8DD0024E028E01A49D1F80E
:105710008807FEF7F9FF05461248016E2846FFF795
:10572000B9F817D21449D1F88C07FEF7EDFF0546FA
:105730000C48016E2846FFF7B7F80BD2094890F8DD
:10574000DD00012806D10420064981F8DC00002094
:1057500081F8DD0000200349086600F00FF8BDE87D
:10576000F081000020120020E801002000007A44AF
:10577000F001002000F07F45E82000202DE9F041F5
:105780003221714810F0ECFD6F49B1F83001FEF79D
:10579000BBFF07466D4801683846FEF7B4FD064674
:1057A0006B49FEF7B0FD05466A4801682846FEF7DA
:1057B000AAFD04466849FEF7D8FD684908606249B9
:1057C000086C66490968FEF746FD5F49086464484D
:1057D0000078401C62490870084600780A282ADBD5
:1057E000002008705849086C5E49FEF7BEFD564916
:1057F00008640846006C4864486C5B490968FFF718
:1058000049F80AD8504890F89D0030B901204E4917
:1058100081F89C0081F89D000AE04B49086C5249D0
:105820000968FFF741F803D20020474981F89D003D
:105830000020454908644449486CFEF7A1FF0A214D
:10584000B0FBF1F4224649A149480FF0CBFD48498D
:105850003D48FEF79BFC47A13B48FEF797FC3A49C1
:10586000B1F82E01FEF750FF074638480168384668
:10587000FEF749FD06463649FEF745FD05463E481A
:1058800001682846FEF73FFD04463349FEF76DFDEB
:105890002D498864886CFEF773FF6421B0FBF1F436
:1058A000224632A132480FF09DFD31492648FEF7CD
:1058B0006DFC30A12448FEF769FC2349486DFEF7D2
:1058C0005FFF0446224629A129480FF08BFD284995
:1058D0001D48FEF75BFC27A11B48FEF757FC1A4941
:1058E000486EFEF74DFF0446224620A120480FF0E7
:1058F00079FD1F491448FEF749FC1EA11248FEF726
:1059000045FC1149486FFEF73BFF0446224617A1AC
:1059100017480FF067FD16490B48FEF737FC15A135
:105920000948FEF733FC0849D1F88400FEF728FF48
:10593000044622460DA10E480FF054FD0C490248C2
:10594000FEF724FCBDE8F08120120020E8010020D1
:1059500000007A44F401002000F07F45240200207A
:105960002002002000002041EC010020255800000A
:10597000023200202C000000F801002070B504461F
:105980003DA104200FF0AEFC222104200FF082FC88
:105990003D4904200FF0A6FC222104200FF07AFCE0
:1059A0002C2104200FF076FC012C02D0022C56D1C1
:1059B0002AE035480F30FEF707FC01280CD92221D8
:1059C00004200FF067FC30490F3104200FF08AFCEF
:1059D000222104200FF05EFC2C2104200FF05AFC41
:1059E00029481930FEF7F0FB01280CD922210420A8
:1059F0000FF050FC2449193104200FF073FC2221D0
:105A000004200FF047FC2BE01F483230FEF7DCFB90
:105A100001280CD9222104200FF03CFC1A49323114
:105A200004200FF05FFC222104200FF033FC2C2116
:105A300004200FF02FFC14483C30FEF7C5FB012872
:105A40000CD9222104200FF025FC0F493C31042001
:105A50000FF048FC222104200FF01CFC00E000BFE6
:105A600000BF0AA100200FF03DFC0EA000F048FC92
:105A70000546284670BD000041542B514943534709
:105A8000503D312C000000005B22002041542B517E
:105A900049435347502841504E20536574290D0AFD
:105AA000000000000D0A000070B5002400250EA1C2
:105AB00000200FF017FC002000F086F9054605F0E5
:105AC0000300022805D10EA100200FF00BFC0124D9
:105AD00003E012A100200FF005FC17A100200FF039
:105AE00001FC204670BD00000D0A424D41313530A9
:105AF00020546573742053746172740A0D000000A1
:105B0000416363656C65726F6D6574657220546581
:105B10007374205061737365640A0D00416363659B
:105B20006C65726F6D65746572546573742046613F
:105B3000696C65640A0D0000424D4320546573741E
:105B400020456E640A0D0D0A000000002DE9FC5F7F
:105B5000022000F039F90190032000F035F900909F
:105B6000DDE9001011F06EFE5B490861042000F0D1
:105B70002BF90190052000F027F90090DDE90010D5
:105B800011F060FE54494861062000F01DF90190B3
:105B9000072000F019F90090DDE9001011F052FE25
:105BA0004D4988610A4651695069FEF7ACFB814650
:105BB000494A11691069FEF7A6FB83464946FEF77C
:105BC0004AFB8046FEF70FFE064613F09FF8044698
:105BD000FEF744FE82464148D0F8EC174FF07E5065
:105BE000FEF739FB04465146FEF754FE25D83B49E3
:105BF000D1F8EC07FEF7F7FD80460022384BFEF7A0
:105C0000F2FB04460D465046FEF7EDFD06462246E1
:105C10002B46FEF7FBFD10D801202F49487008469F
:105C20000069C861084640690862084680694862A0
:105C30002CA100200FF056FB4BE02849D1F8EC07CF
:105C4000FEF7D1FD80460022254BFEF7CCFB044633
:105C50000D465046FEF7C7FD064622462B46FEF788
:105C6000E9FD1BD21D48D0F8EC172048FEF7F3FAE7
:105C700004465146FEF718FE10D20120164908705E
:105C800008460069C861084640690862084680699C
:105C9000486217A100200FF025FB1AE00F48D0F84A
:105CA000F0171248FEF7D7FA04465146FEF7F2FD08
:105CB0000FD201200849887008460069C86108466B
:105CC000406908620846806948620BA100200FF015
:105CD00009FBBDE8FC9F0000B8200020E820002060
:105CE0000000F83F4163630D0A00000000004040DF
:105CF000485F420D0A000000496D700D0A00000067
:105D000010B540210B2000F077F8C021152000F0DD
:105D100073F80621102000F06FF88021112000F0A8
:105D20006BF802A100200FF0DDFA10BD416E794D35
:105D30006F74696F6E4372697465726961536574DB
:105D40000D0A000010B50446224606A106480FF0D1
:105D500049FB05490548FEF719FA05A10348FEF776
:105D600015FA10BD25640000142D00201423002016
:105D70002C00000010B501200CF032FF00200CF0C8
:105D80002FFF10BD10B5002000F002F810BD00007C
:105D900010B5044600BF02210A480DF094FC00280B
:105DA000F9D0214607480DF09AFC00BF01210548B3
:105DB0000DF089FC0028F9D002480DF08DFCC0B22E
:105DC00010BD00000038004070B504464FF480510B
:105DD000084808F0DEFB44F08000FFF7D9FFFFF72A
:105DE000D1FF05464FF48051024808F0D4FB284605
:105DF00070BD0000000C014070B504460D46012640
:105E00003103084808F0C5FB04F07F00FFF7C0FF2E
:105E10002846FFF7BDFF3103024808F0BCFB3046BF
:105E200070BD0000000C01402DE9F04105460E4612
:105E30000A20FFF7C9FF044644F0100421460A2057
:105E4000FFF7DAFF1420FFF7BFFF044604F0F80461
:105E500006F0070040EA040739461420FFF7CCFF9C
:105E60001420FFF7B1FF044604F0E70405F0030037
:105E700044EAC00739461420FFF7BEFF0120BDE801
:105E8000F08100BFFEE7000070B504460D463949B9
:105E900051F82410384A52F82420114341F00100EF
:105EA00029460CF07DFE34B9344951F824002946C6
:105EB0000CF076FE05E0314951F8240029460CF03B
:105EC0005FFE18202E49C8702E4830F81400088054
:105ED000032088702C4951F82400294908F07CFAE5
:105EE00028202749C870294830F81400088028491C
:105EF00051F82400224908F06FFA264850F824008F
:105F00002549086000208880C880088188810C208D
:105F10004881224951F824001F490FF04FF9042C01
:105F20000ED11E4951F824002A4640F225510FF0A7
:105F300020F91A4951F824002A4660210FF019F976
:105F4000164951F8240029460FF08EF8042C0FD181
:105F50004FF4E0600CF0B4FB114810F81400114944
:105F600008700020487088700846C5700CF032FB3D
:105F700070BD00007C8F0108908F0108688F0108B8
:105F800036000020A48F010890000020AE8F010889
:105F9000A4000020D88F0108C82C00207C0000201D
:105FA000CC8F01083A00002010B511A100200FF09D
:105FB00099F94FF42F71114810F0D2F90CA1042077
:105FC0000FF090F9642005F041FD0C4900200FF01E
:105FD00089F90BA100200FF085F90AA10748FEF707
:105FE000E1F818B100200A4981F86F0010BD0000E7
:105FF00041542B435041530D0A0000007A170020F2
:106000000D0A00002B435041533A2030000000009D
:10601000EA2B002070B504464FF42F71194810F098
:106020009FF919A100200FF05DF91BA104200FF0CA
:1060300059F9214604200FF055F9222104200FF0D0
:1060400029F919A104200FF04DF9C82005F0FEFC34
:106050000C4900200FF046F913A100200FF042F97F
:1060600012A10848FEF79EF808B1002502E00120C1
:10607000104908724FF42F71024810F071F9284648
:1060800070BD00007A17002041542B5146545047F0
:1060900045540D0A0000000041542B51465450470E
:1060A00045543D22000000000D0A00004552524FA9
:1060B00052000000EA2B002010B5044600201849C9
:1060C00088704FF42F71174810F04AF921460420C8
:1060D0000FF008F94FF4967005F0B8FC12A11148C2
:1060E000FEF760F818B101200D49887010E011A189
:1060F0000C48FEF757F818B101200949887007E0ED
:106100000FA10848FEF74EF810B10020044988702E
:106110004FF42F71034810F023F90148807810BD27
:10612000201D00207A170020414C5245414459203F
:10613000434F0000434F4E4E454354204F4B000009
:10614000434F4E4E454354204600000010B50446D0
:1061500000200F4988704FF42F710E4810F000F99D
:10616000214604200FF0BEF84FF4487005F06EFC95
:1061700009A10848FEF716F810B1012004498870FB
:106180004FF42F71034810F0EBF80148807810BDF0
:10619000201D00207A1700202B514654504F5045A7
:1061A0004E3A30002DE9F04107460026B046002463
:1061B0004FF42F712A4810F0D3F8394604200FF01D
:1061C00091F8642005F042FC1421264810F0C8F82C
:1061D00025A12348FDF7E6FF002832D000BF0AE0E2
:1061E0001F48005D2C2804D1701CC6B2022E00DBB3
:1061F00003E0601CC4B2282CF2DB00BF601CC4B2F8
:10620000002619E01648025D4046411C01F0FF08D7
:1062100014490A541248005D2C280BD1701CC6B2D8
:10622000042E07DB0021A8F10100C2B290460D4800
:10623000815403E0601CC4B2282CE3DB00BF0125BD
:1062400004E00BA10748FDF7D4FF00254FF42F71A0
:10625000034810F085F8074845702846BDE8F081EE
:106260007A170020F51C00202B51454E473A0000BC
:106270002C2C2C00201D002010B5044600201949AC
:10628000087019490870194908704FF42F7118489F
:1062900010F066F8214604200FF024F8642005F081
:1062A000D5FB14A11248FDF77DFF58B11048407A84
:1062B000312803D101200B49087006E0002009496C
:1062C000087002E00020074908704FF42F71084859
:1062D00010F046F8034800780849487001480078F3
:1062E00010BD0000CF010020D0010020D10100200E
:1062F0007A1700202B435245473A0000201D00200A
:1063000070B505464FF42F71104810F029F8294652
:1063100004200EF0E7FF642005F098FB0CA10B4869
:10632000FDF740FF28B101240AA100200EF0DAFF9A
:1063300004E00AA100200EF0D5FF00244FF42F71D5
:10634000024810F00DF8204670BD00007A170020BA
:106350004F4B00004F5F4B0D0A000000505F4B0D8C
:106360000A00000070B50546002406203849087070
:10637000002038490870384908704FF42F713748A9
:106380000FF0EEFF294604200EF0ACFF642005F06C
:106390005DFB032132480FF0E3FF32A12F48FDF7E8
:1063A00001FF002844D000202A49087018E02B483B
:1063B00027490978405C2A49264A1278885424489B
:1063C0000078401C22490870254822490978405C21
:1063D0002C2800D108E01F480078401C1D49087097
:1063E0001C4800780328E2DB00BF00201C49194A42
:1063F00012788854002418E01948005D302803DB27
:106400001748005D392802DD1548005D18B90120E4
:106410001149087007E000200F4908700321104857
:106420000FF09EFF03E0601CC4B2032CE4DB02E02B
:106430000020094908704FF42F7108480FF090FFB1
:1064400005480078094908710348007870BD0000CC
:10645000CD010020CE010020CF0100207A170020BE
:10646000F21C00202B4353513A000000201D002055
:1064700010B500244FF42F7115480FF071FF15A1CE
:1064800004200EF02FFF642005F0E0FA15A1002093
:106490000EF028FF0E4900200EF024FF16A1002068
:1064A0000EF020FF15A10A48FDF77CFE08B101247B
:1064B00000E0002406491348FDF79BFE4FF42F71BE
:1064C00003480FF04DFF10488471204610BD0000B6
:1064D0007A17002041542B51465450535441540DC7
:1064E0000A000000514654505F43757272656E7425
:1064F0005F53544154453D000D0A00004F50454E36
:1065000045440000392C0020201D002010B5002437
:106510004FF42F7113480FF023FF13A104200EF046
:10652000E1FE642005F092FA12A10E48FDF73AFE52
:1065300028B1012412A100200EF0D4FE04E012A123
:1065400000200EF0CFFE002406491148FDF751FE51
:106550004FF42F7103480FF003FF0E48447120469B
:1065600010BD00007A17002041542B51495354416B
:10657000540D0A00434F4E4E454354204F4B0000EC
:10658000434F4E4E0D0A0000444953430D0A00008C
:106590001B2C0020201D002070B504464FF42F71E5
:1065A00018480FF0DDFE18A104200EF09BFE6421B8
:1065B000002005F057FA17A11248FDF7F3FD08B1C6
:1065C00000250BE0214604200EF08CFE1421002053
:1065D00005F048FA1A2104200EF05CFE6421002028
:1065E00005F040FA0BA10748FDF7DCFD08B10025D6
:1065F00000E001254FF42F7102480FF0B1FE28464C
:1066000070BD00007A17002041542B514953454E6C
:10661000440D0A004552524F5200000070B5054625
:106620000C4624B90120094981F8E9040DE0012C48
:1066300004D10120054981F8E80406E0284612F05B
:10664000C3F9034900200EF04DFE70BDE820002084
:106650001423002010B53DA100200EF043FE00F0F1
:10666000ADF842494248FDF7C4FD42494048103068
:10667000FDF7BFFD3D493E481630FDF7BAFD3D49E7
:106680003B482630FDF7B5FD3B493C48FDF7B1FDE1
:106690003B493A480F30FDF7ACFD3A4937481930CD
:1066A000FDF7A7FD38493948FDF7A3FD36493748BE
:1066B000C01DFDF79EFD344934480E30FDF799FDAD
:1066C000314932481530FDF794FD2F492F481C30D1
:1066D000FDF78FFD2C492D482330FDF78AFD1E2044
:1066E00023495F39C1F810020020C1F818025A206E
:1066F000C1F81C024FF4FA60C1F828021920C1F851
:10670000F0040020C87181F82002052081F82102E0
:106710001E20C1F814026420C1F824020A20087265
:106720004FF41670C1F8F80119A12248FDF761FD78
:1067300021480F495F39C1F8E807C1F8EC07C1F8F3
:10674000F0070A2081F8230810BD0000436F6E6631
:1067500069675F466163746F727953657474696EBB
:1067600067735F53494D310D0A0000009190010895
:1067700047210020A0900108F09001085B22002032
:10678000F99001080191010809910108B72600203C
:106790004646464646464646464646464646464699
:1067A0004646464646464646464646464646464689
:1067B00000000000EA280020CDCCCC3D10B50A2016
:1067C000FE4981F8E40781F8E507FDA1FD48FDF7E2
:1067D00010FDFDA1FD48FDF70CFDF9A1FB48401D92
:1067E000FDF707FDFAA1F9480E30FDF702FDF9A10A
:1067F000F6481930FDF7FDFCF7A1F4482430FDF709
:10680000F8FCF5A1F1483930FDF7F3FCF649F748FB
:10681000FDF7EFFCF649F5483830FDF7EAFCF5499D
:10682000E6480930FDF7E5FCF349E4481D30FDF783
:10683000E0FCF249E1482330FDF7DBFCF049DF489A
:106840003C30FDF7D6FCEF49DC484B30FDF7D1FC7E
:106850000020DA4981F8DF0781F8E00781F8DE07D8
:10686000012081F8CC05002081F8CD0581F80E02C9
:10687000012081F80002002081F8B80781F8B907EB
:1068800081F8BA07A1F8BC0781F8BE07C1F8C007B4
:10689000C1F8D807012081F8580781F8590703206B
:1068A00081F85A07012081F85B07032081F85C0713
:1068B000012081F85D07032081F85E070F2081F831
:1068C000F80781F8F907012081F8FA07002081F81C
:1068D000FB070F20A1F8FC07012081F8FE07082024
:1068E00081F8FF07142081F80008052081F80108CD
:1068F0000846C5A10988A0F8EA140120AF4981F82B
:10690000E10781F8E207002081F8E307BF49AB48BF
:10691000B530FDF76EFCBD49A848D330FDF769FCE2
:10692000BA49A848EB38FDF764FCB849A548CD380A
:10693000FDF75FFCB549A348AF38FDF75AFCB349F2
:10694000A0489138FDF755FC00209C4981F8ED04E2
:10695000AFA19C480F30FDF74CFC0F209749C1F8C0
:10696000F001AD4997487338FDF743FCAA499548B3
:106970006E38FDF73EFC0320904981F8600781F8EE
:10698000610781F8620781F8630781F8640781F87D
:10699000650781F8660781F8670781F868070420B2
:1069A00081F86907032081F86A0781F86B0781F88D
:1069B0006C0781F86D0781F86E0781F86F0781F821
:1069C000700781F87107042081F87207032081F8AD
:1069D0007307052081F874070020C1F8780742F298
:1069E0001070C1F87C074FF4FA70C1F880070320DB
:1069F00081F8840781F88507052081F88607002043
:106A0000C1F8880742F21070C1F88C074FF4FA7091
:106A1000C1F89007032081F8940781F895070520B5
:106A200081F896070020C1F8980742F21070C1F86B
:106A30009C074FF4FA70C1F8A007032081F8A4075F
:106A400081F8A507052081F8A6070020C1F8A8074E
:106A500042F21070C1F8AC074FF4FA70C1F8B007F9
:106A60006E496F48FDF7C5FB6EA16D480A30FDF712
:106A7000C0FB6EA16A481430FDF7BBFB6EA16848ED
:106A80001E30FDF7B6FB6E4965482830FDF7B1FBB7
:106A900004204A4981F8B4072D20A1F8B60769A15E
:106AA0006B48FDF7A6FB6BA16948401FFDF7A1FBF2
:106AB0006AA167481430FDF79CFB66A164480F305B
:106AC000FDF797FB68A162482830FDF792FB61A1B2
:106AD0005F482330FDF78DFB66A15D483C30FDF734
:106AE00088FB5CA15A483730FDF783FB64A1584806
:106AF0005030FDF77EFB57A155484B30FDF779FB31
:106B000062A153486430FDF774FB52A150485F30D6
:106B1000FDF76FFB60A14E487830FDF76AFB4DA191
:106B20004B487330FDF765FB5EA149488C30FDF79B
:106B300060FB48A146488730FDF75BFB5CA14448F9
:106B4000A030FDF756FB43A141489B30FDF751FBB8
:106B50005AA13F48B430FDF74CFB3EA13C48AF3052
:106B6000FDF747FB18A13A48C330FDF742FB56A199
:106B70003748C730FDF73DFB56A13548D230FDF709
:106B800038FB55A13248D630FDF733FB55A13048CC
:106B9000E130FDF72EFB50A12D48E530FDF729FB34
:106BA00051A12B48F030FDF724FB4BA12848F430CD
:106BB000FDF71FFB4DA12648FF3099E0E82000209B
:106BC00030303000C4220020303031000C29002049
:106BD00041414100424242002B3932333332373394
:106BE0003538353135000000A6900108A803002093
:106BF000B0900108BA900108C6900108C990010838
:106C0000DB900108E690010831000000889001083F
:106C100030303030000000001D910108199101084A
:106C200060290020446F6F7200000000536561749A
:106C30002042656C74000000482D427265616B0053
:106C40001091010847656F46656E6365203100004D
:106C5000E6260020313030300000000047656F46E6
:106C6000656E63652032000047656F46656E63653B
:106C70002033000047656F46656E63652034000071
:106C800047656F46656E63652035000047656F4652
:106C9000656E63652036000047656F46656E636507
:106CA0002037000047656F46656E63652038000039
:106CB00047656F46656E63652039000047656F461E
:106CC000656E636520313000313131313030303024
:106CD0003030000030303200303030303030303042
:106CE0003030000030303300303034003030350088
:106CF000FDF77FFAAFF220011D48FDF77AFA1DA1DA
:106D00001B480B30FDF775FAAFF2340118480F300D
:106D1000FDF76FFA18A116481A30FDF76AFAAFF2BC
:106D2000480113481E30FDF764FA14A110482930B9
:106D3000FDF75FFAAFF260010D482D30FDF759FA0B
:106D40000FA10B483830FDF754FAAFF27401084830
:106D50003C30FDF74EFA0BA105484730FDF749FAE4
:106D6000AFF28C0102484B30FDF743FA10BD000032
:106D7000E92700203030360030303700303038001E
:106D8000303039003031300010B53DA100200EF018
:106D9000A9FAFFF713FD42494248FDF72AFA424992
:106DA00040481030FDF725FA3D493E481630FDF7C2
:106DB00020FA3D493B482630FDF71BFA3B493C4849
:106DC000FDF717FA3B493A480F30FDF712FA3A49F6
:106DD00037481930FDF70DFA38493948FDF709FAF7
:106DE00036493748C01DFDF704FA344934480E309F
:106DF000FDF7FFF9314932481530FDF7FAF92F490F
:106E00002F481C30FDF7F5F92C492D482330FDF7AC
:106E1000F0F91E2023495F39C1F810020020C1F8A3
:106E200018025A20C1F81C024FF4FA60C1F8280277
:106E30001920C1F8F0040020C87181F82002052053
:106E400081F821021E20C1F814026420C1F8240236
:106E50000A2008724FF41670C1F8F80119A12248EF
:106E6000FDF7C7F921480F495F39C1F8E807C1F8B4
:106E7000EC07C1F8F0070A2081F8230810BD0000D4
:106E8000436F6E6669675F466163746F72795365BD
:106E90007474696E67735F53494D320D0A000000C8
:106EA0009190010847210020A0900108F09001086E
:106EB0007E220020F9900108019101080991010842
:106EC000B72600204646464646464646464646467D
:106ED0004646464646464646464646464646464652
:106EE0004646464600000000EA280020CDCCCC3DB6
:106EF00013B5CEB000204790469045904490439003
:106F00004290419040903F900C900B900A900990D5
:106F1000089007900690FE4981F857074E98C0796F
:106F200030384E998979303901EB810100EB41000D
:106F3000C0B24790F7484E9911F02EFD47985B2854
:106F400083F0A485DFE810F0D8022F038803020441
:106F50007104C1040B06F406C0077C088408A21D56
:106F6000A21DA21DA21DA21DA21DA21DA21DA21D29
:106F7000B408D408EA083B094F090F0A170A210A86
:106F8000CB0A090B300B860CA21D8C0C960D320E11
:106F9000980ECA0E170F32103F10A21D9F10A21D8F
:106FA000A21DAD104011CA11A21DA21D1D16E2188E
:106FB0003B1A801B8D1DA21DA21DA21DA21DA21D7C
:106FC000A21DA21DA21DA21DA21DA21DA21DA21DC9
:106FD000A21DA21DA21DA21DA21DA21D0212A21D64
:106FE000DB12A21DA21DA21DA21DA21DA21DFF1328
:106FF000A714CE14A21D2F159A15E5155B00C6A186
:1070000000200EF06FF91DA825AB2DAA37A900901E
:10701000C0480FF0F2FC37A8FDF703F946900421B1
:107020002DA811F099FE45900B2125A811F094FE92
:10703000449046980A2870DC45980328FBDC449865
:107040000A286AD14698C0B20990B8A1B848099AEE
:107050000EF0C8F9B7A100200EF044F9B4490020A1
:107060000EF040F9B7A100200EF03CF90998401E3F
:10707000C0B20A9009980B287ED2DFE800F07D06A6
:107080001C354F68839CB5CEE7002DA9AE48FDF7AF
:10709000B0F825A9AC48001DFDF7ABF8AA4A0321BA
:1070A000AA4811F06FFBA84A121D0A21A7483C30DC
:1070B00011F068FBE4E02DA9A3480F30FDF799F823
:1070C00025A9A1481330FDF794F89F4A0F320321F8
:1070D0009E48C01C11F056FB9B4A13320A219B4864
:1070E000463011F04FFBCBE02DA997481E30FDF73D
:1070F00080F825A994482230FDF77BF8924A1E3289
:1071000003219248801D11F03DFB8F4A22320A2153
:107110008E48503011F036FBB2E0E4E12DA98A48E8
:107120002D30FDF766F825A987483130FDF761F865
:10713000854A2D3203218548093011F023FB824A0C
:1071400031320A2181485A3011F01CFB98E02DA9F8
:107150007D483C30FDF74DF825A97B484030FDF7D0
:1071600048F8794A3C32032178480C3011F00AFB88
:10717000754A40320A2100E081E07448643011F021
:1071800001FB7DE02DA970484B30FDF732F825A9B1
:107190006D484F30FDF72DF86B4A4B3203216B4899
:1071A0000F3011F0EFFA684A4F320A2167486E300B
:1071B00011F0E8FA64E02DA963485A30FDF719F898
:1071C00025A961485E30FDF714F85F4A5A32032161
:1071D0005E48123011F0D6FA5B4A5E320A215B48F3
:1071E000783011F0CFFA4BE02DA957486930FDF700
:1071F00000F825A954486D30FCF7FBFF524A69326C
:1072000003215248153011F0BDFA4F4A6D320A2160
:107210004E48823011F0B6FA32E02DA94A48783053
:10722000FCF7E7FF25A948487C30FCF7E2FF464A17
:10723000783203214548183011F0A4FA424A7C32D2
:107240000A2142488C3011F09DFA19E02DA93E48E0
:107250008730FCF7CEFF25A93B488B30FCF7C9FFF0
:10726000394A8732032139481B3011F08BFA364AEC
:107270008B320A213548963011F084FA00E000BFC5
:1072800000BF0020469014E00898411C89B2089184
:107290002049095C37AA4698115437A94698085CDA
:1072A0002C2803D10798401C40B207904698401CF8
:1072B00046900798022802DC46982828E4DD4FF023
:1072C000FF30079005E10898411C89B208911149E7
:1072D0000A5C0B98411C89B20B911D490A540D4957
:1072E0000898085C2C2803D00898085C002874D102
:1072F0000798401C40B207900021154A0B98115482
:107300000798059000EBD0704110059822E000002E
:10731000E8200020502D0020506F6C7947656F46A3
:10732000656E636520446174610D0A002564000088
:10733000EC2C00200A0D47656F46656E63654E6F45
:107340003A0000000D0A0000A927002090FE01006D
:1073500052300020A0EB4100F0BB10460EF0F0FFD1
:10736000079A059202EBD27253100A9A02EB42047A
:1073700004EBC202FE4C04EB021202EB031203C246
:107380000798059000EBD07041100A9800EB40027E
:1073900002EBC000224602EB001000EB011103C912
:1073A00002460B46CDE90201F2A1F4480EF01AF8AC
:1073B0000798059000EBD07041100A9800EB40024E
:1073C00002EBC000224602EB001000EB011103C9E2
:1073D000CDE90201079801E013E076E0049000EBAC
:1073E000D07040100A9901EB81014FF4F83202EBA2
:1073F000411101EB00100190DDE9022310F0E9F8E2
:1074000054E0DF480EF09CFF079A059202EBD2721F
:1074100053100A9A02EB420404EBC202D44C04EB70
:10742000021202EB0312C2E902010798059000EB79
:10743000D07041100A9800EB400202EBC0002246D7
:1074400002EB001000EB0111D1E9020102460B46EC
:10745000CDE90201C7A1C9480DF0C4FF0798059006
:1074600000EBD07041100A9800EB400202EBC00024
:10747000224602EB001000EB0111D1E90201CDE937
:1074800002010798049000EBD0704010082101EB36
:1074900000110A9800EB80004FF4F83202EB401024
:1074A00008440190DDE9022310F093F8B5490898EB
:1074B000085C00B912E00C21B1480EF051FF002029
:1074C0000B900898401C80B208900C98401C80B229
:1074D0000C900C98B0F52F7FFFF6F5AE00BF4E98DC
:1074E00011F014FB02E04E9811F0CEFA4F994E982D
:1074F000FFF794F803F0E3BA4E98407A3038A24987
:1075000008702DAA37A99F480FF0C0F92DA8FCF7E5
:1075100088FE46909C480078012807D09A48007859
:10752000022803D098480078032834D14698B0F553
:10753000803F30DA954890F80002934909788842F4
:1075400003D091480078032803D190494698C1F8A8
:1075500018028D480078012803D08B480078032852
:1075600006D1469880B201460590894810F016F978
:1075700085480078022803D083480078032806D184
:10758000469880B201460590824810F007F94E985F
:1075900011F0BCFA02E04E9811F076FA4F994E982D
:1075A000FFF73CF8A6E74E98407A303876490870E5
:1075B0002DAA37A973480FF069F92DA8FCF731FE01
:1075C000469071480078012807D06F48007802285B
:1075D00003D06D480078032836D14698B0F5803F37
:1075E00032DA6A4890F8000267490978884203D085
:1075F00065480078032803D164494698C1F81C0205
:1076000061480078012803D05F480078032807D13B
:10761000469880B2014605905D48801F10F0BEF884
:1076200059480078022803D057480078032807D12A
:10763000469880B2014605905648801F10F0AEF87B
:107640004E9811F063FA02E04E9811F01DFA4F992E
:107650004E98FEF7E3FF4DE74E98407A30384A499E
:10766000087025AB2DAA37A946480FF05FF92DA861
:10767000FCF7D7FD469025A8FCF7D3FD459042487E
:107680000078012807D040480078022803D03E48FF
:107690000078032852D14698B0F5803F4EDA4598DD
:1076A000B0F5803F4ADA394890F800023649097847
:1076B000884203D03448007803280BD12DA8FCF76A
:1076C000B0FD3249C1F8100225A8FCF7AAFD2F49E8
:1076D000C1F814022C480078012803D02A48007809
:1076E00003280FD1469880B20146059028480B38F0
:1076F00010F054F8459880B20146059024481430A3
:1077000010F04CF820480078022803D01E4800787A
:1077100003280FD1469880B2014605901D480B38CA
:1077200010F03CF8459880B2014605901948143095
:1077300010F034F84E9811F0E9F902E04E9811F08B
:10774000A3F94F994E98FEF769FFD3E64E98407A19
:1077500030380D4908702DAA37A90A480FF096F85D
:107760002DA8FCF75EFD469007480078012813E03D
:1077700050040020252E366600000000EC2C00206E
:1077800052300020502D00202F010020E820002042
:10779000A7EE0100A7EF010007D0FE4800780228FD
:1077A00003D0FC480078032837D14698002834DB02
:1077B0004698B0F5B47F30DAF74890F80002F54902
:1077C0000978884203D0F3480078032803D1F249AE
:1077D0004698C1F8F004EF480078012803D0ED483E
:1077E0000078032806D1469880B201460590EB4800
:1077F0000FF0D4FFE7480078022803D0E54800786E
:10780000032806D1469880B201460590E4480FF05F
:10781000C5FF4E9811F07AF902E04E9811F034F954
:107820004F994E98FEF7FAFE64E64E98407A30384B
:10783000D84908702DAA37A9DA480FF027F82DA8E3
:10784000FCF7EFFC4690D3480078012807D0D148D8
:107850000078022803D0CF48007803282DD100BF3C
:10786000CD4890F80002CB490978884203D0C94836
:107870000078032803D1C8494698C1F82802C548B2
:107880000078012803D0C3480078032804D1C348F6
:10789000801F46990FF06CFFBE480078022803D085
:1078A000BC480078032804D1BD48801F46990FF0DA
:1078B0005FFF4E9811F02AF902E04E9811F0E4F8BB
:1078C0004F994E98FEF7AAFE14E6B7A100200DF0DE
:1078D00009FD4E98407A3038AE4908701DA825A998
:1078E0002DABBA4ACDE9001037A9AE480FF00BF91D
:1078F000B648FCF796FC4690A6480078012807D0C9
:10790000A4480078022803D0A248007803287CD13C
:10791000A14890F800029F490978884203D09D4809
:107920000078032830D19B480078012802D146987E
:10793000012806D09748007802280DD146980128E2
:107940000AD125A994485F30FCF753FC1DA9924841
:107950006F30FCF74EFC17E08E480078012802D10A
:107960004698022806D08B48007802280CD1469809
:10797000022809D125A988487530FCF73AFC1DA9D1
:1079800085488530FCF735FC82480078012803D013
:1079900080480078032869D14698012802D002283F
:1079A00062D139E08AA100200DF09CFC7A495F3158
:1079B00000200DF097FCAFF2746100200DF092FCF6
:1079C0008CA100200DF08EFC25AA10214FF4F73079
:1079D00010F0D8FE1DAA06217048A23810F0D2FE81
:1079E0002DAA02218A4810F0CDFE6B495F3100209C
:1079F0000DF078FCAFF2B46100200DF073FC664925
:107A00006F3100200DF06EFC00E0A0E0AFF2CC6121
:107A100000200DF067FC28E07EA100200DF062FC44
:107A200025AA10215D489C3810F0ACFE1DAA062145
:107A30005A488C3810F0A6FE2DAA0221744810F086
:107A4000A1FE5549753100200DF04CFC77A10020B6
:107A50000DF048FC5049853100200DF043FC73A126
:107A600000200DF03FFC00E000BF00BF4948007857
:107A7000022803D047480078032864D1469801289B
:107A800002D002285DD134E051A100200DF02AFC83
:107A900041495F3100200DF025FC64A100200DF06C
:107AA00021FC54A100200DF01DFC25AA10213B480B
:107AB0004E3010F067FE1DAA062138485E3010F0E7
:107AC00061FE2DAA0221524810F05CFE32495F315E
:107AD00000200DF007FC55A100200DF003FC2E49FD
:107AE0006F3100200DF0FEFB50A100200DF0FAFBDD
:107AF00028E048A100200DF0F5FB25AA1021274819
:107B0000643010F03FFE1DAA06212448743010F0A6
:107B100039FE2DAA02213E4810F034FE1E4975316F
:107B200000200DF0DFFB41A100200DF0DBFB1A4926
:107B3000853100200DF0D6FB3CA100200DF0D2FBDA
:107B400000E000BF00BF4E9810F0E0FF02E04E984A
:107B500010F09AFF4F994E98FEF760FDCAE44E98D8
:107B6000407A30380B49087025A82DAB174A37A941
:107B700000900C480EF041FF1448FCF752FB469071
:107B800004480078012856D002480078022852D0D4
:107B900000484DE02F010020E8200020B2EE010057
:107BA000B2EF0100502D002050726576696F757339
:107BB0002047505253204950202F2F2F2F2F2F2F47
:107BC0002F2F2F2F2F3A0D0A000000003201002026
:107BD00050726576696F7573204750525320495033
:107BE000312F2F2F2F2F2F2F2F2F2F2F2F3A0D0ADF
:107BF000000000004E657720475052532049503115
:107C00002F2F2F2F2F2F2F2F2F2F2F2F3A0D0A00EF
:107C100097EC01004E65772047505253204950326F
:107C20002F2F2F2F2F2F2F2F2F2F2F3A0D0A0000FE
:107C3000007803286DD1F64890F80002F5490978DC
:107C4000884203D0F348007803282CD1F14800780B
:107C5000012803D0EF48007803280DD1EE49EF4802
:107C6000FCF7C7FA2DA9ED480F30FCF7C2FA25A999
:107C7000EA481930FCF7BDFAE6480078022803D03C
:107C8000E448007803280ED1E349E4482330FCF7A8
:107C9000B0FA2DA9E1483230FCF7ABFA25A9DF484C
:107CA0003C30FCF7A6FADB480078012803D0D9481D
:107CB0000078032810D1D84A0F21D94810F062FD6E
:107CC0002DAA0A21D6480F3010F05CFD25AA0A2102
:107CD000D348193010F056FDCE480078022803D062
:107CE000CC480078032810D1CB4A0F21CD4810F0A2
:107CF00049FD2DAA0A21CB480F3010F043FD25AADB
:107D00000A21C848193010F03DFD4E9810F0FEFED3
:107D100002E04E9810F0B8FE4F994E98FEF77EFCA8
:107D20004E9810F0F3FE4F994E98FEF777FC39E429
:107D30004E98407A3038B74908701DA825AB2DAA57
:107D400037A90090B8480EF058FE2DA8FCF769FA44
:107D5000469025A8FCF765FA45901DA8FCF761FA46
:107D60004490AC480078012807D0AA48007802283F
:107D700003D0A848007803287ED1459805287BDCED
:107D80004498052878DC4398052875DCA04890F8CD
:107D90000002A0490978884203D09E480078032851
:107DA00020D14698FCF7A7FC4090A0494098FCF7EA
:107DB000DCFA9749C1F8EC074598FCF79CFC409029
:107DC0009A494098FCF7D1FA9149C1F8E8074498DC
:107DD000FCF791FC409095494098FCF7C6FA8C4915
:107DE000C1F8F0078B480078012803D08948007853
:107DF000032829D14698FCF77EFC40908B49409897
:107E0000FCF7B3FA0146059086485A380FF010FC8B
:107E10004598FCF770FC409084494098FCF7A5FA1F
:107E2000014605907F4856380FF002FC4498FCF755
:107E300062FC40907D494098FCF797FA0146059016
:107E400078485E380FF0F4FB72480078022803D0BF
:107E50007048007803282BD14698FCF74CFC4090E2
:107E600072494098FCF781FA014605906D48A630AA
:107E70000FF0DEFB459800E01EE0FCF73CFC409074
:107E80006A494098FCF771FA014605906548AA30A6
:107E90000FF0CEFB4498FCF72EFC409063494098CD
:107EA000FCF763FA014605905E48A2300FF0C0FB74
:107EB0004E9810F02BFE02E04E9810F0E5FD4F9921
:107EC0004E98FEF7ABFB40E44E98407A303851496B
:107ED000087015A81DA925AB2DAACDE9001037A95A
:107EE00051480EF010FE2DA8FCF79BF9469025A8EE
:107EF000FCF797F945901DA8FCF793F9449015A855
:107F0000FCF78FF9439043480078012807D0414897
:107F10000078022803D03F480078032876D146989D
:107F2000022873DC4598022870DC4498FF287FDC27
:107F30004398FF287CDC364890F8000235490978E0
:107F4000884203D03348007803280BD13049469843
:107F500081F820024598C871449881F82308439815
:107F600081F821022B480078012803D029480078A5
:107F700003281FD14698C0B201460590294873389E
:107F80000FF0CCFB4598C0B20146059025487438E7
:107F90000FF0C4FB4498C0B2014605902148513807
:107FA0000FF0BCFB4398C0B2014605901D487238E3
:107FB0000FF0B4FB17480078022803D0154800786A
:107FC00003281FD14698C0B20146059015488D3050
:107FD0000FF0A4FB4598C0B20146059011488C30C3
:107FE0000FF09CFB4498C0B2014605900D48AF309D
:107FF0000FF094FB4398C0B20146059009488E30BB
:108000000FF08CFB4E9810F081FD14E010E00000A2
:10801000E82000202F010020320100205B220020F8
:108020002CEE01002CEF0100502D0020000020411B
:108030004E9810F029FD4F994E98FEF7EFFA43E461
:10804000FAA100200DF04EF90120FE4948703BE4F2
:1080500037AAFD49FD480EF019FCFB48FCF7E1F892
:1080600046904698B0F5803F1ADAF6494698C1F82E
:10807000F00137A9F648FCF7BCF8F54A0521F548A8
:1080800010F080FBEF48B0F8F00180B20146059097
:10809000F048401D0FF082FB4E9810F037FD02E0D3
:1080A0004E9810F0F1FC4F994E98FEF7B7FA0BE49A
:1080B000E648FCF7B6F846904698152810DAE149EC
:1080C000469881F8ED04084690F8ED0401460590C5
:1080D000E048401F0FF022FB4E9810F017FD02E021
:1080E0004E9810F0D1FC4F994E98FEF797FA35E56F
:1080F0004FF48071D84806F04CFA4FF4FA7003F050
:10810000A5FC4FF48071D44806F045FA4E9810F063
:10811000FDFC4F994E98FEF781FA1FE54E98407A84
:108120003038032843DC4E98407A31280DD10020A6
:10813000C449C1F8FC010846D0F8FC01014605908D
:10814000C4481D380FF014FB2DE04E98407A3228B9
:108150000DD10020BB49C1F8F4010846D0F8F40164
:1081600001460590BB4831380FF002FB1BE04E98EA
:10817000407A332817D10020B249C1F8F401C1F880
:10818000FC010846D0F8FC0101460590B1481D38B5
:108190000FF0EEFAAB48D0F8F40101460590AD4877
:1081A00031380FF0E5FA4E9810F0B0FC02E04E982E
:1081B00010F06AFC4F994E98FEF730FACEE4A7A172
:1081C00000200DF08FF8FF21AB480FF0A7FAFF2138
:1081D000A948401C0FF0A2FAFF21A748801C0FF00D
:1081E0009DFA0AF081FAA54AA54998480EF04EFB7F
:1081F000A348FCF716F846904698FF287DDCA14975
:10820000469881F89A009D480078312816D1084692
:1082100090F89A0058B901208A49887041028E4826
:1082200006F0B9F901218B4814300FF077FA0120DC
:10823000944981F8940081F897001AE08F480078FB
:10824000302816D18F4890F89A0058B902207D49FD
:1082500088700102804806F09CF900217D481430A6
:108260000FF05CFA0020874981F89400012081F822
:10827000970082484078312816D1824890F89A00B9
:1082800058B901206F49C8708102734806F083F91C
:108290000121704815300FF041FA0120794981F829
:1082A000950081F898001AE074484078302816D17B
:1082B000744890F89A0058B902206249C870410287
:1082C000654806F066F90021624815300FF026FA7D
:1082D00000206C4981F89500012081F898006748DA
:1082E0008078312818D1674890F89A0068B9012041
:1082F000544908718102584800E02CE006F04BF91F
:108300000121544816300FF009FA01205D4981F827
:10831000960081F899001AE058488078302816D1E4
:10832000584890F89A0058B902204649087141020D
:10833000494806F02EF90021464816300FF0EEF9B4
:108340000020504981F89600012081F899004E984C
:1083500010F0DCFB02E04E9810F096FB4F994E981F
:10836000FEF75CF9E3E44E980FF024FA4F994E982B
:10837000FEF754F9DBE40FF01DFE4E9810F0C6FB3B
:108380004F994E98FEF74AF9D1E44E98407A30382A
:108390003D4908703D4B2C4A37A92C480EF0C6FACF
:1083A0002948FBF73EFF46903848FBF73AFF4590D7
:1083B00035480078012807D033480078022803D0D8
:1083C0003148007803287DD1469800287FDB469805
:1083D000FF287CDC4598FF2879DC1A4890F80002D9
:1083E00029490978884203D027480078032805D115
:1083F00014494698C1F8240245980872224800782A
:10840000012803D02048007803280ED1469880B276
:10841000014605901E480FF0C1F94598C0B20146CB
:1084200005901B48C01C0FF079F933E050494E47C6
:108430005F5245512F2F2F2F2F2F2F2F2F2F2F2FC1
:108440000D0A0000E8200020142D0020502D0020EF
:10845000D322002045ED01000018014046616374FD
:108460006F72792052657365742F2F2F2F2F2F2F46
:108470002F2F2F2F2F0D0A0003EC010047010020A2
:1084800043010020201200202F0100203201002093
:10849000BDEE0100FE480078022803D0FC480078B9
:1084A00003280ED1469880B201460590F9480FF096
:1084B00075F94598C0B201460590F648C01C0FF00A
:1084C0002DF900E003E04E9810F020FB02E04E98FA
:1084D00010F0DAFA4F994E98FEF7A0F827E4EEA1D3
:1084E00000200CF0FFFEF34AF349F4480EF0CEF9F9
:1084F000F048FBF796FE46904E98407A3038E449B3
:1085000008700846007802281FDA469803281CDC09
:1085100008460078EA4981F8CC05469881F8E207D8
:10852000084690F8CC0501460590E6480FF0F6F8AD
:10853000E34890F8E20701460590E2482A300FF040
:10854000EDF84E9810F0E2FA02E04E9810F09CFA26
:108550004F994E98FEF762F8B5E4DBA100200CF0CD
:10856000C1FE4E98407A3038C949087008460078F4
:10857000022811DA08460078D14981F80E0208462F
:1085800090F80E0201460590CE48401D0FF0C6F847
:108590004E9810F0BBFA02E04E9810F075FA4F9921
:1085A0004E98FEF73BF88EE41DA825A92DAA37ABFF
:1085B000CDE900210290C04ABE49C0480EF041FBFF
:1085C000BD48FBF72EFE469037A8FBF72AFE4590E4
:1085D0002DA8FBF726FE449025A8FBF722FE43902A
:1085E0001DA8FBF71EFE42904E98407A30380428B2
:1085F0007EDC46980A287BDC4598052878DC46F620
:1086000060514498884273DC4398884270DC4298F9
:1086100088426DDC4E98407A31283FD1A84946986F
:1086200081F87207459881F874074498C1F87C076F
:108630004398C1F878074298C1F88007084690F837
:108640007207014605909F48FE300FF067F89C487E
:1086500090F8740701460590A3480FF05FF898481A
:10866000B0F87C0780B2014605909F48C01C0FF00F
:1086700095F89348B0F8780780B2014605909A487B
:10868000401C0FF08BF88E48B0F8800780B201468E
:1086900005909548401D0FF081F8CFE04E98407A44
:1086A000322842D18649469881F88407459881F856
:1086B00086074498C1F88C074398C1F88807429808
:1086C000C1F89007084690F884070146059086484F
:1086D000C01D0FF023F87A4890F8860701460590F0
:1086E000814809300FF01AF87548B0F88C0700E09F
:1086F000A8E080B2014605907B480C300FF04EF8A0
:108700006F48B0F8880780B20146059076480A3075
:108710000FF044F86A48B0F8900780B2014605901F
:1087200071480E300FF03AF888E04E98407A3328BE
:1087300040D16349469881F89407459881F8960797
:108740004498C1F89C074398C1F898074298C1F82B
:10875000A007084690F8940701460590624810303B
:108760000EF0DCFF564890F89607014605905E48EB
:1087700012300EF0D3FF5248B0F89C0780B2014689
:108780000590594815300FF009F84D48B0F8980792
:1087900080B201460590544813300EF0FFFF484860
:1087A000B0F8A00780B2014605904F4817300EF090
:1087B000F5FF43E04E98407A34283FD1404946982F
:1087C00081F8A407459881F8A6074498C1F8AC073A
:1087D0004398C1F8A8074298C1F8B007084690F836
:1087E000A40701460590404819300EF097FF344821
:1087F00090F8A607014605903B481B300EF08EFF0F
:108800002F48B0F8AC0780B20146059036481E30BC
:108810000EF0C4FF2A48B0F8A80780B201460590C0
:1088200031481C300EF0BAFF2548B0F8B00780B2CE
:10883000014605902C4820300EF0B0FF4E9810F005
:1088400065F902E04E9810F01FF94F994E98FDF728
:10885000E5FE2CE425A100200CF044FD09F044FFC6
:10886000144B284A144915480EF060F81248FBF7DB
:10887000D8FC074908702348FBF7D3FC224908704D
:1088800003480078012846D00148007802283DE0DE
:108890002F010020BDEF0100454550524F4D5F456F
:1088A0004E5F44532F2F2F2F2F2F2F2F2F2F2F2F50
:1088B0003A0D0A0032010020142D0020502D002016
:1088C000E820002070EC010053494D5F53484654A6
:1088D0005F454E5F44532F2F2F2F2F2F2F2F2F2FDA
:1088E0002F2F3A0D0A00000070ED01004D43552076
:1088F00052657365742F2F2F2F2F2F2F2F2F2F2F70
:108900002F0D0A00300100203901002003D0FE485D
:108910000078032878D1FD480078042874DCFC48EE
:1089200090F80002F8490978884203D0F6480078A8
:10893000032827D1F5480078052821D2DFE800F088
:1089400003080E141A00F349F348FBF752FC18E031
:10895000F049F148C01DFBF74CFC12E0ED49EE4830
:108960001C38FBF746FC0CE0EA49EB481538FBF7EE
:1089700040FC06E0E749E8480E38FBF73AFC00E027
:1089800000BF00BFE0480078012803D0DE4800782F
:1089900003282CD1DD480078052826D2DFE800F036
:1089A000030910171E00DB4A0721DC480FF0EAFE1E
:1089B0001CE0D84A0721D948C01D0FF0E3FE15E09E
:1089C000D44A0721D5481C380FF0DCFE0EE0D14A0E
:1089D0000721D24815380FF0D5FE07E0CD4A072110
:1089E000CE480E380FF0CEFE00E000BF00BFC648F4
:1089F0000078022803D0C448007803282ED1C34849
:108A00000078052828D200E02CE0DFE800F0030918
:108A100010171E00BF4A0721C1480FF0B3FE1CE02B
:108A2000BC4A0721BE48C01D0FF0ACFE15E0B94A94
:108A30000721BB481C380FF0A5FE0EE0B54A072100
:108A4000B74815380FF09EFE07E0B24A0721B44838
:108A50000E380FF097FE00E000BF00BF4E9810F0F8
:108A600055F802E04E9810F00FF84F994E98FDF728
:108A7000D5FD77E44E98407A3038A349087008460F
:108A8000007806287EDC0846007801280ED11421E3
:108A9000A4480DF065FCA34AA349A4480DF0F6FED6
:108AA000A04A1421A2480FF06DFE73E096480078AA
:108AB000022812D114219B481E300DF051FC994A16
:108AC0001E32994999480DF0E1FE964A1E32142152
:108AD000974814300FF056FE5CE08B48007803286E
:108AE00012D114218F483C300DF03AFC8D4A3C32B3
:108AF0008D498E480DF0CAFE8A4A3C3214218C48BA
:108B000028300FF03FFE45E07F480078042812D15E
:108B1000142184485A380DF023FC824A5A3A82497B
:108B200082480DF0B3FE7F4A5A3A142180483C38FF
:108B30000FF028FE2EE074480078052812D1142189
:108B400078485A380DF00CFC764A5A3A76497748FC
:108B50000DF09CFE734A5A3A142175483C380FF0C8
:108B600011FE17E068480078062813D114216D48DB
:108B70005A380DF0F5FB6B4A5A3A6B496B480DF0C9
:108B800085FE00E00AE0674A5A3A142168483C38FA
:108B90000FF0F8FD4E980FF0B9FF02E04E980FF07D
:108BA00073FF4F994E98FDF739FD97E44E98407A40
:108BB0003038554908700846007804285BDC5D4A67
:108BC0005D495A480DF062FE5B48FBF72AFB5B49A2
:108BD00008700B21574810F0BFF859490870084633
:108BE00000780A2840DA55480078052836D2DFE8B0
:108BF00000F003080E1B28004E495248FBF7F9FA13
:108C00002DE04C494F482838FBF7F3FA27E0494953
:108C10004C481E38FBF7EDFA4A4A1E3A0A214448EE
:108C2000C4300FF0AFFD1AE0424946481438FBF754
:108C3000E0FA444A143A0A213D48CE300FF0A2FD32
:108C40000DE03C493F480A38FBF7D3FA3D4A0A3A5F
:108C50000A213748D8300FF095FD00E000BF00BF73
:108C60004E980FF053FF02E04E980FF00DFF4F9912
:108C70004E98FDF7D3FC31E44FF42F7132480DF0DC
:108C80006FFB32A13048FBF781FA31A12E48FBF788
:108C90007DFA1F4890F8E107012804D12149843961
:108CA0002948FBF773FA2BA12748FBF76FFA2048F6
:108CB00050300EF0F7FC3F9028A129483F9A0CF065
:108CC00091FB27492048FBF761FA26A11E48FBF7D4
:108CD0005DFA4F994E98FDF7A1FC3DE41348FBF770
:108CE000ADFA469000BF0A494698C1F8FC01084613
:108CF000D0F8FC01014605900D4850300EF038FDCB
:108D00004E980FF003FF31E02F01002039010020C1
:108D1000E820002032010020D32600208EEE010042
:108D20008EEF0100F72100204B010020502D002084
:108D3000D8EC0100763000204001002042010020E4
:108D40004D01002088290020142300202424000045
:108D50002C0000002C5333362C000000256400004A
:108D6000EC2C00202C4F4B0D0A0000004F994E9820
:108D7000FDF754FC17E42DAB37AAF749F7480DF07F
:108D8000D5FDF548FBF74DFA4690062137A80FF0C0
:108D9000E3FF459010212DA80FF0DEFF4490469888
:108DA00014287DDC459804287AD144980F2877DC74
:108DB00046980B281BD2DFE800F0EC061B32496016
:108DC0007990A7BED50037A9E548FBF712FA2DA97F
:108DD000E348401DFBF70DFA37AA0521E1480FF0E3
:108DE000D1FC2DAA0F21DF48401D0FF0CBFCD0E0B5
:108DF00037A9DB481430FBF7FCF92DA9D848193006
:108E0000FBF7F7F937AA0521D64814300FF0BAFC62
:108E10002DAA0F21D34819300FF0B4FCB9E037A9BF
:108E2000CF482830FBF7E5F92DA9CD482D30FBF7C9
:108E3000E0F937AA0521CB4828300FF0A3FC2DAA72
:108E40000F21C8482D300FF09DFCA2E037A9C4487F
:108E50003C30FBF7CEF92DA9C1484130FBF7C9F9E9
:108E600037AA0521BF483C300FF08CFC2DAA0F21FA
:108E7000BC4841300FF086FC8BE037A9B848503031
:108E8000FBF7B7F92DA9B6485530FBF7B2F937AA69
:108E90000521B44850300FF075FC2DAA0F2100E0D9
:108EA0007CE0B04855300FF06DFC72E037A9AC485B
:108EB0006430FBF79EF92DA9A9486930FBF799F9B1
:108EC00037AA0521A74864300FF05CFC2DAA0F21BA
:108ED000A44869300FF056FC5BE037A9A048783011
:108EE000FBF787F92DA99E487D30FBF782F937AA59
:108EF00005219C4878300FF045FC2DAA0F21994898
:108F00007D300FF03FFC44E037A995488C30FBF7EB
:108F100070F92DA992489130FBF76BF937AA05211A
:108F200090488C300FF02EFC2DAA0F218D489130E7
:108F30000FF028FC2DE037A98948A030FBF759F93C
:108F40002DA98748A530FBF754F937AA0521854894
:108F5000A0300FF017FC2DAA0F218248A5300FF08A
:108F600011FC16E037A97E48B430FBF742F92DA971
:108F70007B48B930FBF73DF937AA05217948B43071
:108F80000FF000FC2DAA0F217648B9300FF0FAFB44
:108F900000BF00BF4E980FF0B9FD02E04E980FF0F1
:108FA00073FD4F994E98FDF739FB52E400206E494E
:108FB0004860086008724E980FF0A8FD4F994E98CF
:108FC000FDF72CFB45E469A100200CF08BF94E98CD
:108FD000407A30386D4908702DAA37A95F480DF0E6
:108FE00055FC23212DA80FF0B7FE46906748007866
:108FF000012807D065480078022803D0634800782C
:10900000032838D14698202835D1614890F80002CD
:109010005E490978884203D05C480078032803D170
:109020002DA95C48FBF7E5F858480078012803D0E3
:1090300056480078032804D12DAA202156480FF065
:10904000A1FB52480078022803D05048007803283A
:1090500004D12DAA202151480FF094FB4D49002046
:109060000CF040F9AFF6284100200CF03BF94E9887
:109070000FF04CFD02E04E980FF006FD4F994E9810
:10908000FDF7CCFAF5E446A100200CF02BF94E9840
:109090000FF03CFD01203E4981F8CE0581F8E8043F
:1090A000E7E44E98407A3038384908702DAA37A93D
:1090B0002A480DF0EBFB2DA8FBF7C0F8469033488B
:1090C0000078012807D031480078022803D02F48C3
:1090D0000078032870D14698B0F5803F6CDA2C48B0
:1090E00090F8000229490978884203D0274800787F
:1090F000032803D126494698C1F8F801234800788F
:10910000012803D021480078032807D1469880B26F
:109110000146059020481B380EF040FB1B480078A4
:10912000022803D019480078032807D1469880B256
:109130000146059019481B380EF030FB15490020F8
:109140000CF0D0F8AFF6085100200CF0CBF84E9898
:109150000FF0DCFC33E02FE04B010020502D00200D
:10916000E126002000FD0100AC200020414C4552CA
:1091700054535F454E434F44452F2F2F2F2F2F2FF2
:109180002F2F2F2F2F3A0D0A000000002F01002053
:10919000E8200020EA280020DCEE0100DCEF0100DE
:1091A0004649524D574152455F4A554D505F4341E4
:1091B0004C4C0D0A000000004E980FF065FC4F99D2
:1091C0004E98FDF72BFA54E40DA815A91DAA25AB5E
:1091D000CDE9002102902DAA37A9FE480DF031FDFE
:1091E00037A8FBF71EF846902DA8FBF71AF8459014
:1091F00025A8FBF716F844901DA8FBF712F843903A
:1092000015A8FBF70EF842900DA8FBF70AF841905D
:1092100046980A285ADC45980A2857DC44980A28B8
:1092200054DC43980A2851DC42980A284EDC4198C5
:109230000A284BDCE849469881F85A07459881F896
:109240005907449881F85C07439881F85B07429876
:1092500081F85E07419881F85D07084690F85A0743
:1092600001460590DD480EF059FADB4890F85907A1
:1092700001460590D948401C0EF050FAD64890F8A7
:109280005C0701460590D548001F0EF047FAD2480A
:1092900090F85B0701460590D048C01E0EF03EFADC
:1092A000CD4890F85E0701460590CC48801E0EF030
:1092B00035FAC94890F85D0701460590C748401E39
:1092C0000EF02CFA4E980FF021FC02E04E980FF0B1
:1092D000DBFB4F994E98FDF7A1F966E42DAA37A95B
:1092E000BC480DF0D3FA37A8FAF79BFF46902DA89B
:1092F000FAF797FF45904698012823DB46980A28FD
:1093000020DC459801281DDB4598B4281ADCB249B9
:10931000469881F8B4074598A1F8B6074698C0B2B8
:1093200001460590AD48801C0EF0F8F94598C0B292
:1093300001460590A948C01C0EF0F0F94E980FF0B8
:10934000E5FB02E04E980FF09FFB2EE425AB2DAA23
:1093500037A9A0480DF0EAFA2DA8FAF762FF469067
:1093600025A8FAF75EFF45904E98407A30380628D7
:109370007DDC46980A287ADC4598052877DC4E98EB
:10938000407A312819D19449469881F86007459868
:1093900081F86207084690F86007014605908F48FB
:1093A000D4300EF0BBF98C4890F862070146059066
:1093B0008A48D6300EF0B2F995E04E98407A3228BD
:1093C00019D18549469881F86307459881F8650762
:1093D000084690F86007014605908048D7300EF0A7
:1093E0009DF97D4890F86207014605907B48D93089
:1093F0000EF094F977E04E98407A332819D17649E7
:10940000469881F86607459881F86807084690F8FD
:109410006007014605907148DA300EF07FF96E481A
:1094200090F86207014605906C48DC300EF076F942
:1094300059E04E98407A34281AD16749469881F805
:109440006907459881F86B07084690F86007014660
:1094500005906248DD300EF061F95F4890F86207D0
:10946000014605905D48DF300EF058F93BE03EE0E4
:109470004E98407A352819D15749469881F86C079B
:10948000459881F86E07084690F8600701460590F8
:109490005248E0300EF042F94F4890F8620701461A
:1094A00005904E48E2300EF039F91CE04E98407AB3
:1094B000362818D14849469881F86F07459881F8B1
:1094C0007107084690F86007014605904348E3306D
:1094D0000EF024F9404890F86207014605903F4895
:1094E000E5300EF01BF94E980FF010FB02E04E989D
:1094F0000FF0CAFA4F994E98FDF790F83AE438A168
:1095000000200BF0EFFE3D480DA915AA1DABCDE9DB
:109510000132CDE9031025A82DAB37AA38490090B8
:109520002C480DF009FD4E98407A303835490870C6
:109530003248FAF776FE4690152137A80FF00CFC5A
:10954000459006212DA80FF007FC4490152125A871
:109550000FF002FC43901A211DA80FF0FDFB429072
:10956000102115A80FF0F8FB41901A210DA80FF05B
:10957000F3FBC0B206902348007803287EDA4698B1
:10958000FF287BDC4598142878DC4498052875DC96
:109590004398142872DC429819286FDC41980F28F0
:1095A0006CDC0698192869DC16480078012803D07D
:1095B00014480078022831D10120074981F8BA0700
:1095C00081F8B9070F480078022822D101200E49FE
:1095D0001CE00000502D0020E820002088EC010055
:1095E0004941505F454E5F44532F2F2F2F2F2F2F70
:1095F0002F2F2F2F2F3A0D0A0000000032010020DC
:10960000142D00202F010020381D002081F85A035E
:109610000AE00020F74981F85A0305E00020F649E6
:1096200081F8BA0781F8B907F34890F8BA070146FC
:109630000590F2480EF072F80020EE4981F82C02F5
:1096400037A9ED480930FAF7D4FD2DA9EA481D30B5
:10965000FAF7CFFD25A9E8484B30FAF7CAFD1DA956
:10966000E5482330FAF7C5FD15A9E3483C30FAF781
:10967000C0FD0DA9E248FAF7BCFD00E05BE0DE4961
:10968000469881F80108084690F8010801460590BF
:10969000DA481F300EF042F8D749093100200BF0AC
:1096A00021FED8A100200BF01DFED3491D31002062
:1096B0000BF018FED3A100200BF014FECE494B3165
:1096C00000200BF00FFECFA100200BF00BFECA49CB
:1096D000233100200BF006FECAA100200BF002FE91
:1096E000C5493C3100200BF0FDFDC6A100200BF068
:1096F000F9FDC34900200BF0F5FDC2A100200BF0DD
:10970000F1FDC1A100200BF0EDFDBB4890F8010870
:109710000246AFF6B811059048A80BF063FE48A9C1
:1097200000200BF0DFFDB7A100200BF0DBFD4E9811
:109730000FF0ECF902E04E980FF0A6F94F994E9811
:10974000FCF76CFF31E4B2A100200BF0CBFDB84870
:109750000DA915AA1DABCDE90032CDE9021025AB4C
:109760002DAA37A9B3480DF01EFB102137A80FF022
:10977000F3FA469004212DA80FF0EEFA4590092146
:1097800025A80FF0E9FA44900B211DA80FF0E4FA88
:1097900043900B2115A80FF0DFFA429015210DA878
:1097A0000FF0DAFA41901521A1480FF0D5FAC0B2B6
:1097B000069046980F2866DC4598032863DC449899
:1097C000082860DC43980A285DDC42980A285ADCA5
:1097D0004198142857DC0698142854DC37A9964879
:1097E000FAF707FD2DA986486030FAF702FD25A992
:1097F00083486530FAF7FDFC1DA981486E30FAF701
:10980000F8FC15A97E487930FAF7F3FC0DA97C48DD
:109810008430FAF7EEFC864979489930FAF7E9FC8A
:10982000854A0F2175485D380EF0ACFF744A6032EE
:10983000042182480EF0A6FF714A653208216F4864
:109840004E380EF09FFF6E4A6E320A216B48463842
:109850000EF098FF6A4A79320A2168483C380EF0C7
:1098600091FF674A84321421644832380EF08AFF2F
:10987000634A9932142161481E380EF083FF4E98D6
:109880000FF044F902E04E980FF0FEF84F994E9811
:10989000FCF7C4FE04E46AA100200BF023FD4E98FF
:1098A000407A30386C49087008460078022811DA8E
:1098B00008460078504981F8CD05084690F8CD0556
:1098C000014605904D48401F0DF028FF4E980FF0BF
:1098D0001DF902E04E980FF0D7F84F994E98FCF71B
:1098E0009DFE70E41DA825AB2DAA37A90090514814
:1098F0000DF083F837A8FAF794FC46902DA8FAF7F4
:1099000090FC459025A8FAF78CFC44901DA8FAF726
:1099100088FC43904698FF283DDC4598FF283ADCB8
:109920004498FF2837DC4398012834DC32494698B4
:1099300081F8F807459881F8F907449881F8FA0703
:10994000439881F8FB07084690F8F8070146059010
:109950002A4815300DF0E2FE274890F8F907014635
:109960000590264816300DF0D9FE234890F8FA07E6
:1099700001460590214817300DF0D0FE1E4890F8A2
:10998000FB07014605901D4818300DF0C7FE4E98A4
:109990000FF0BCF802E04E980FF076F84F994E9811
:1099A000FCF73CFE0FE42DA100200BF09BFC4E9831
:1099B000407A30382849087008460078022811DAC1
:1099C000084600780C4981F8E107084690F8E1075D
:1099D00001460590094822300DF0A0FE4E980FF088
:1099E00095F802E04E980FF04FF84F994E98FCF71B
:1099F00015FE72E4381D0020E820002077EC0100FD
:109A0000AC2800200D0A00004941505472793D00F5
:109A1000545241434B45525F49445F444154412FA6
:109A20002F2F2F2F2F2F2F2F2F2F2F3A0D0A0000E0
:109A3000142D0020502D0020C4220020C4ED010070
:109A400053445F454E5F44532F2F2F2F2F2F2F2F1F
:109A50002F2F2F2F3A0D0A002F010020494D454985
:109A60005F5041445F454E5F44532F2F2F2F2F2FC0
:109A70002F2F2F2F2F2F3A0D0A00000025AB2DAAD4
:109A800037A9FE480CF052FF37A8FAF7CAFB4690F8
:109A90002DA8FAF7C6FB459025A8FAF7C2FB44901B
:109AA000469801282DDC4598FF282ADC4498FF2899
:109AB00027DCF349469881F8FE07459881F8FF07AF
:109AC000449881F80008084690F8FE070146059082
:109AD000EC480DF023FEEA4890F8FF070146059098
